:020000040800F2
:1000000008060020D5000008F90F00082D0F000891
:1000100000000000000000000000000000000000E0
:10002000000000000000000000000000791300083C
:100030000000000000000000E51000083D1B000863
:10004000E7000008E7000008E7000008E7000008F4
:10005000E7000008E7000008E7000008E7000008E4
:10006000E7000008E7000008E7000008E7000008D4
:10007000E7000008E7000008E7000008951E0008F8
:10008000691F000800000000000000000D1C0008AF
:1000900000000000E51C0008BD1D0008E700000886
:1000A00000000000E7000008E7000008D921000870
:1000B000E7000008000000001D0C0008E700000831
:1000C0000348854600F03EF8004800476D270008C9
:1000D000080600200448804704480047FEE7FEE782
:1000E000FEE7FEE7FEE7FEE7911B0008C1000008FF
:1000F00030B50B46014600202022012409E00D46C0
:10010000D5409D4205D31D469540491B2546954047
:1001100040191546521E002DF1DC30BD70B500248B
:100120002546002801DA01244042002901DA012590
:100130004942FFF7DDFFAC4200D04042002C00D026
:10014000494270BD064C0125064E05E0E36807CC28
:100150002B430C3C98471034B442F7D3FFF7B4FF5D
:10016000E4280008042900081CB50121480400F017
:10017000BBFF0121480200F0E7FF062000900320AA
:10018000694608710920C00600F062FE1CBD10B56A
:10019000FFF7EAFF00F002F810BD000000B591B0D3
:1001A000374800F0A1F80121480200F0CDFF0121FD
:1001B000084600F099FF334800F0BEFD304840305B
:1001C000009031480190002002900320039000200D
:1001D0000490802005904000069080000790202029
:1001E00008900002099000200A906946254800F016
:1001F0000FFE0121234800F091FD0221204800F06C
:100200006BF801211E4800F05BF80BA800F0CDF858
:1002100000200B90012008A9087400200D900F9079
:1002200010900BA9164800F0A5F80021144800F022
:100230003BF8052201210904114800F029F80120AA
:1002400000F0BCF8052202210D4800F021F805223B
:1002500004210B4800F01CF8094800F055F8012172
:10026000074800F021F800BF0849054800F06AF887
:100270000028F9D0024800F093F811B000BD00004A
:1002800000240140080002403E000020010000015F
:1002900010B50B460021846A1C43846200BF0C46E3
:1002A00014432146416110BD002904D08268012316
:1002B0001A43826003E0826802231A438260704717
:1002C000002904D0C26801231A43C26003E0C26857
:1002D00052085200C2607047C26802239A43C2604B
:1002E000C2680A43C260704710B50446054884429C
:1002F00007D10121401500F037FF0021601500F003
:1003000033FF10BD0024014030B50146002000221B
:1003100000238C680125ED072C438C6000BF8C689E
:10032000E30FDB07521C0F242403A24201D0002B51
:10033000F5D18C68E40FE407002C01D1086C00E0D3
:10034000002030BD30B502460020002301242406E1
:100350000C40002C05D0946801252D06AC432346A3
:1003600000E013681C460C40002C01D0012000E086
:10037000002030BD10B50022C268084B1A400C792D
:1003800064030B6823438C682343CC6823430C69C4
:1003900023434C6923431A43C26010BD03D2FFFFBD
:1003A000816804221143816070470021016001715E
:1003B0008160C1600161416170470000002807D081
:1003C000074989680122D2051143054A916006E078
:1003D000034989680122D2059143014A916070471F
:1003E0000027014010B501235B02CA1A994242D08E
:1003F00010DC202930D006DC012924D0042925D0A6
:10040000082948D125E0402929D0CA1FF93A002AF5
:1004100041D12DE03F246402131BA24236D009DCF7
:10042000FF3AFF3A023A002A28D001239B02D21A4F
:1004300031D126E00122D2039A1A13D001231B04E2
:10044000D21A28D111E0154A826025E00822C26044
:1004500022E01022C2601FE0082202611CE010228C
:10046000026119E00822426016E01022426013E0A7
:100470000422426010E0042242600DE00422426047
:100480000AE0002282610422426005E000228261CB
:100490000422426000E000BF00BF10BD0101010066
:1004A00010B504460121480600F03EFE002101205F
:1004B000400600F039FE10BD002904D1C268202397
:1004C0001A43C26003E0026920231A4302617047A5
:1004D00010B50021837A01229A401146394A1268E8
:1004E00001231A43374B1A601A46D2698A43DA61EC
:1004F000027B002A1AD11A46D2688A43DA60C2887F
:10050000120443881A43304B0924A4011B19847A2E
:10051000E4001A518288120403881A432A4B0924E2
:10052000A4011B19847AE4001B195A60027B012A7A
:100530001BD1244AD2680A43224BDA600288120493
:1005400043881A43204B0924A4011B19847AE40030
:100550001A5182881204C3881A431B4B0924A40130
:100560001B19847AE4001B195A60C27A002A05D14B
:10057000144A52688A43134B5A6004E0114A526885
:100580000A43104B5A600289002A04D10D4A52696D
:100590008A430C4B5A610289012A04D1094A5269E3
:1005A0000A43084B5A61427B012A04D1054AD269A9
:1005B0000A43044BDA61034A126852085200014BA5
:1005C0001A6010BD00660040006400401CB50121A7
:1005D000480400F089FD0121480600F095FD042241
:1005E0000B210920C00600F07BFC04220C2109200D
:1005F000C00600F075FC0120C00200900221684690
:1006000001710121C17169460920C00600F020FC7A
:1006100001200003009002216846017100218171D0
:10062000032141710021C17169460920C00600F013
:100630000FFC1CBD70B504460D46002660692840BD
:1006400000286FD0FF210131681A8D4264D010DC80
:10065000082D3DD006DC012D28D0022D2CD0042DF4
:100660007BD12FE0102D39D0202D3DD0402D74D1DD
:1006700040E07F221202811A904268D00DDCFF38E0
:10068000013800284FD0FF38FF380238002850D0FA
:1006900001218902401A60D151E00120C003081AEB
:1006A0002ED001210904401A57D12FE0A0682E490D
:1006B00000F02AFB064652E0E068032100F024FB2C
:1006C00006464CE0E068082100F01EFB064646E0C6
:1006D000E068102100F018FB064640E02069032185
:1006E00000F012FB06463AE02069082100F00CFBFE
:1006F000064634E02069102100F006FB06462EE095
:100700006068082100F000FB064628E060681021C0
:1007100000F0FAFA064622E0A069012100F0F4FA9E
:1007200006461CE01CE0A069022100F0EDFA064636
:1007300015E0A069042100F0E7FA06460FE0A06981
:10074000702100F0E1FA064609E006E0FFE7606884
:10075000042100F0D9FA064601E0002600BF00E0BF
:100760000026304670BD000001010100002A03D0C0
:1007700043690B43436102E043698B434361704724
:1007800030B502460020002314680225AC431460F3
:10079000146801252C43146000E05B1C5468E407D6
:1007A000E40F002C02D13C4CA342F6D15468E4077C
:1007B000E40F002C01D100206DE08C79012C04D1D4
:1007C000146880252C43146003E014688025AC4332
:1007D0001460CC79012C04D1146840252C4314609A
:1007E00003E014684025AC4314600C7A012C04D15A
:1007F000146820252C43146003E014682025AC43C2
:1008000014604C7A012C04D1146810252C43146018
:1008100003E014681025AC4314608C7A012C04D1D9
:10082000146808252C43146003E014680825AC43C1
:100830001460CC7A012C04D1146804252C43146074
:1008400003E014680425AC4314608C78A407CD78C9
:100850002D062C430D792D042C434D792D052C4369
:100860000D886D1E2C43D461146864086400146004
:10087000002300E05B1C5468E407E40F002C02D066
:10088000054CA342F6D15468E407E40F002C01D0D4
:10089000002000E0012030BDFFFFFF0000B587B061
:1008A0001848FFF7FDFD04A800F0BCF800216846D9
:1008B0008175C175017641768176C1768174C17486
:1008C00007210175062141750321018204A90D4804
:1008D000FFF756FF0121684681720021C172012194
:1008E00001730021018041808180C180018101214B
:1008F0004173FFF7EDFD012202210248FFF736FFA9
:1009000007B000BD0064004008B51E2168460170B4
:10091000022141700121817000F070FB08BD10B50B
:100920000C010346FF33B1331B59042423401372D7
:10093000137A002B07D10C010346FF33B1331B5947
:100940005B0D136006E00C010346FF33B1331B5906
:10095000DB0853600C010346FF33B1331B590224FB
:10096000234053720C010346FF33B133E3185B6835
:100970001B071B0F93720C010346FF33B133E318BF
:100980005B681B041B0ED3740C010346FF33B133A9
:10099000E3189B68D3720C010346FF33B133E318AD
:1009A0009B681B041C0E14730C010346FF33B13308
:1009B000E3189B681B021C0E54730C010346FF33A3
:1009C000B133E3189B681B0E93730C010346FF338E
:1009D000B133E318DB68D3730C010346FF33B13343
:1009E000E318DB681B041C0E14740C010346FF3370
:1009F000B133E318DB681B021C0E54740C01034670
:100A0000FF33B133E318DB681B0E9374002904D164
:100A1000C36820242343C36003E0036920242343E5
:100A2000036110BD00218171C17101724172817237
:100A3000C1728170C17003210171022141710121D4
:100A40000180704730B50246002093680124A40657
:100A50002340A34200D110E093680124E406234020
:100A6000A34201D1012008E0936801242407234018
:100A7000A34201D1022000E0042004287BD004011D
:100A80001346FF3381331B59DC07E40F050113467E
:100A9000FF3381335C510B7A002B0FD10B885B0540
:100AA0004C7A234305011446FF34813464592343AF
:100AB00005011446FF348134635110E04B68DB00BC
:100AC0000C7A23434C7A234305011446FF348134C6
:100AD0006459234305011446FF34813463518B7AF2
:100AE0001B071B0F8B7204011346FF338133E3187E
:100AF0005B681C09240105011346FF338133EB18A1
:100B00005C6004011346FF338133E3185B688C7A21
:100B1000234305011446FF3481342C1963608B7B19
:100B20001B064C7B240423430C7B24022343CC7AF6
:100B3000234305011446FF3481342C19A3608B7CB8
:100B40001B064C7C240423430C7C24022343CC7BD3
:100B5000234305011446FF3481342C19E36004015A
:100B60001346FF3381331B590124234305011446E7
:100B7000FF348134635130BDF0B587B006460C4672
:100B800000200690002700252046E117490F09188C
:100B90004905090E06912046E117490F0918C910A9
:100BA000C900611ACFB2002001901A4802900421B6
:100BB000684601730021417311E00820694688737B
:100BC000002506E0317803A803304155761C681CE7
:100BD000C5B2082DF6DB01A90F48FFF733FF0698D1
:100BE000411EC9B206910028E7D1002F10D06846F7
:100BF0008773002506E0317803A803304155761C41
:100C0000681CC5B2BD42F6DB01A90348FFF71AFF15
:100C100007B0F0BD341200000064004010B586B08B
:100C20000024002001900290002168460173817326
:100C3000C17502212148FFF7FDFC01283BD101AA23
:100C400000211E48FFF76BFE1D49029888422BD1F8
:100C50006846007B042827D100BF0CE003A80330BE
:100C6000005D18490968087016480068401C15495D
:100C70000860601CC4B26846807BA042EEDC684617
:100C8000807B1149097840180F49087000210B48F2
:100C9000FFF712FC6846807B0A4A1268111A0A485C
:100CA00002780AA001F03CFC14A001F039FC0221FA
:100CB0000248FFF797FB06B010BD0000006400403B
:100CC0003412000038000020340000200D0A2043B8
:100CD000414E20526563656976652042756666659A
:100CE000723D3D25732C52784D6573736167652E97
:100CF000444C433D3D2564200D0A00006765742087
:100D00006974210D0A0000000246002013460B40C2
:100D1000002B01D0012000E000207047002904D002
:100D2000026801231A43026003E00268014B1A4083
:100D300002607047FEFF00000168334A1140016005
:100D40000021016041608160C1603049884208D162
:100D50002E49083949680F2211432C4A083A51603C
:100D600051E02A491431884208D128490839496894
:100D7000F0221143254A083A516044E023492831C2
:100D8000884209D12149083949680F2212021143CA
:100D90001E4A083A516036E01C493C31884209D16C
:100DA0001A49083949680F2212031143174A083AB1
:100DB000516028E015495031884209D1134908395A
:100DC00049680F2212041143104A083A51601AE090
:100DD0000E496431884209D10C49083949680F220B
:100DE00012051143094A083A51600CE0074978316D
:100DF000884208D10549083949680F221206114373
:100E0000024A083A51607047FEFF000008000240A5
:100E100010B5002202680D4B1A400C6A8B68234300
:100E20000C6923434C6923438C692343CC692343D6
:100E30004C6A23438C6A23431A430260CB684360A5
:100E40000B6883604B68C36010BD00000F80FFFF1C
:100E5000F0B50A4600210023002400BF3DE0012533
:100E60008D402B4615681D402C469C4234D1157987
:100E7000012D02D01579022D16D185684F00032669
:100E8000BE40B543856055794E00B5408668354310
:100E90008560858801268E40B54385808588967952
:100EA0008E40B6B23543858005684F000326BE40AC
:100EB000B543056015794E00B540066835430560B9
:100EC000C5684F000326BE40B543C560D5794E00C6
:100ED000B540C6683543C560491C1029BFD3F0BD75
:100EE000F0B5002300244D07EE0E1546B5402B4605
:100EF000CD10AE0005462035AD594E07F70E0F2632
:100F0000BE40B543CE10B60007462037BD51CD10C8
:100F1000AE003D46AD591D432C46CD10AD003E46BA
:100F20007451F0BD018570478161704700BFFEE7D5
:100F300001B502E00098401E009000980028F9D109
:100F400008BD1CB50121480400F0CEF80120009036
:100F50000121684601710321417100218171C17134
:100F600069460920C006FFF773FF01210920C0066A
:100F7000FFF7DAFF1CBD00001CB50121480400F09A
:100F8000B3F80121880400F0AFF8FF20F1300090A1
:100F90000121684601710321417100218171012104
:100FA000C17169460920C006FFF752FF074800904B
:100FB00001216846017103214171002181710121E4
:100FC000C17169460248FFF743FF1CBDFFFF0000E7
:100FD0000004004810B50446204600F09BFF204660
:100FE00001F004F8204600F053FE204600F0BCFE5D
:100FF000204600F025FF10BD7047000000218278D8
:10100000002A27D0184A03231B02D21803789B100A
:101010009B00D15802789207D30EFF229A400B46CC
:101020009343194642789207120E03789B07DB0E12
:101030009A4011430C4A03231B02D21803789B10D9
:101040009B00D1500278D306DB0E01229A40064B5A
:101050001A6007E00278D306DB0E01229A40024BA9
:1010600080331A607047000000E100E010B50028EE
:1010700019DA1A4A03071B0F083B9B089B00D2583A
:101080008307DC0EFF23A3409A438B071B0E8407C4
:10109000E40EA3401A43114B0407240F083CA40894
:1010A000A4001A5118E00E4A03231B02D218830829
:1010B0009B00D2588307DC0EFF23A3409A438B0783
:1010C0001B0E8407E40EA3401A43054B032424029D
:1010D0001B198408A4001A5110BD00001CED00E08B
:1010E00000E100E070470000002905D0054A526980
:1010F0000243044B5A6104E0024A52698243014BA5
:101100005A61704700100240002905D0054AD26993
:101110000243044BDA6104E0024AD2698243014B84
:10112000DA61704700100240002905D0054A1269B3
:101130000243044B1A6104E0024A12698243014BE4
:101140001A61704700100240002905D0054A9269D3
:101150000243044B9A6104E0024A92698243014BC4
:101160009A61704700100240002905D0054AD268F4
:101170000243044BDA6004E0024AD2688243014B26
:10118000DA60704700100240FEB5044600250026D4
:1011900000200290019000900027704840680C21C8
:1011A00008400546002D06D0042D07D0082D08D094
:1011B0000C2D2CD128E06A4820602BE06848206084
:1011C00028E0664840680F218904084006466348C5
:1011D00040680321C90308400290B00C861C0298A5
:1011E000002803D15F48374647430BE05B48C06A9D
:1011F0000007000F401C019059480199FEF778FF45
:1012000070430746276005E05748206002E05448D5
:10121000206000BF00BF51484068F02108400546EB
:101220002D095248405D009021680098C1406160DE
:101230004A48406807210902084005462D0A4B48E4
:10124000405D009061680098C140A1604348006B18
:10125000FF2101310840884202D04548E0600DE09E
:101260003E484068012189030840884203D0A068B5
:101270004008E06002E0A0688008E0603748006B4A
:1012800040210840402802D03A48206102E0012075
:10129000C00320613148006B10210840102802D0A3
:1012A0002F48606101E0206860612C48006B800776
:1012B000800F002802D1A068A06119E02748006BC8
:1012C0008007800F012802D12068A06110E0234828
:1012D000006B8007800F022802D18003A06107E025
:1012E0001E48006B8007800F032801D11C48A061B5
:1012F0001A48006B032109040840002802D1A068A5
:10130000E06120E01548006B032109040840012139
:101310000904884202D12068E06114E00F48006BA4
:1013200003210904084001214904884202D18010A8
:10133000E06108E00948006B032109040840884285
:1013400001D10748E0610548006B802108408028F2
:1013500002D00548206200E02762FEBD0010024076
:1013600000127A0000093D00006CDC021900002028
:10137000809FD500128000007047000010B5044621
:10138000E007C00F002805D020210920C006FFF784
:10139000C9FD04E020210920C006FFF7C5FD022099
:1013A0002040002805D0FF2101311348FFF7BAFD86
:1013B00004E0FF2101311048FFF7B6FD0420204072
:1013C000002805D0012149020B48FFF7ABFD04E0DE
:1013D000012149020848FFF7A7FD08202040002806
:1013E00004D008210448FFF79DFD03E008210248CE
:1013F000FFF79AFD10BD00000004004810B5044638
:10140000E007C00F002804D010211848FFF78CFD1A
:1014100003E010211548FFF785FD02202040002839
:1014200004D020211148FFF77FFD03E020210F4861
:10143000FFF778FD04202040002804D040210B480D
:10144000FFF772FD03E040210848FFF76BFD08201D
:101450002040002804D080210448FFF765FD03E008
:1014600080210248FFF75EFD10BD00000004004827
:1014700010B50446E007C00F002804D004211B4823
:10148000FFF752FD03E004211848FFF74BFD02204F
:101490002040002805D0012189021448FFF744FDAF
:1014A00004E0012189021148FFF73CFD042020409F
:1014B000002805D00121C9020C48FFF735FD04E0E2
:1014C0000121C9020948FFF72DFD0820204000280E
:1014D00005D0012109030548FFF726FD04E001219D
:1014E00009030248FFF71EFD10BD0000000400487C
:1014F00010B50446E007C00F002805D001214903BC
:101500001C48FFF711FD04E0012149031948FFF7CA
:1015100009FD02202040002805D00121890315483B
:10152000FFF702FD04E0012189031248FFF7FAFCEE
:1015300004202040002805D00121C9030D48FFF7F1
:10154000F3FC04E00121C9030A48FFF7EBFC082083
:101550002040002806D0FF2101310920C006FFF7F6
:10156000E3FC05E0FF2101310920C006FFF7DAFCAA
:1015700010BD00000004004810B50446E007C00F8D
:10158000002805D040210920C006FFF7CDFC04E06B
:1015900040210920C006FFF7C5FC0220204000289A
:1015A00005D080210920C006FFF7BEFC04E08021A1
:1015B0000920C006FFF7B6FC04202040002804D014
:1015C00001210B48FFF7B0FC03E001210848FFF7B9
:1015D000A9FC08202040002804D002210448FFF77D
:1015E000A3FC03E002210248FFF79CFC10BD0000B1
:1015F000000400480CB500200190009031480068BC
:101600000121090408432F49086000BF2D480068E4
:1016100001214904084000900198401C0190009865
:10162000002804D10521090301988842EED12548FC
:101630000068012149040840002802D001200090E0
:1016400001E0002000900098012839D111201E49A6
:1016500008601C4840681B4948600846406848606C
:10166000084640687F21C9038843164948600846F8
:10167000406811210904084312494860084600687F
:101680000121090608430F49086000BF0D480068A2
:101690000121490608400028F8D00A48406880081F
:1016A000800008494860084640680221084305490F
:1016B000486000BF034840680C2108400828F9D161
:1016C0000CBD0000001002400020024010B544484C
:1016D000008844490988884214D04348007801288A
:1016E00010D101223F4801883D48008800F098F859
:1016F0003B490880084601883C48FEF70FFD044638
:1017000000F008FC3A4800883A490988884214D019
:1017100039480078012810D102223648018834481F
:10172000008800F07DF832490880084601882F487B
:10173000FEF7F4FC044600F059FC304800883049BC
:101740000988884214D02F480078012810D103223C
:101750002B4801882948008800F062F82749088052
:10176000084601882148FEF7D9FC044600F090FAAB
:101770002548008825490988884214D024480078E3
:10178000012810D10422214801881F48008800F058
:1017900047F81D490880084601881448FEF7BEFC3A
:1017A000044600F0E1FA1B4800881B49098888427A
:1017B00014D01A480078012810D105221648018853
:1017C0001448008800F02CF8124908800846018867
:1017D0000648FEF7A3FC044600F032FB10BD0000F3
:1017E00068000020720000207C000020001BB70071
:1017F0006A000020740000207D0000206C000020A2
:10180000760000207E0000206E000020780000207E
:101810007F000020700000207A000020800000205F
:10182000F7B506460298030000F08AFE06F7044E5C
:1018300098E2F6F70198851B032407E06000B84999
:10184000095A601C4000B64A1152641E002CF5DA99
:10185000B3490D8000204881002408E0B048408949
:101860006100AF4A515A401811464881641C042C4B
:10187000F4DD002D05DDAA4840894019A8494881BA
:1018800004E0A7484089401BA5494881A4484089F5
:10189000FF212D31884202DB0846A1494881A14938
:1018A0000988694308460A21FEF738FC87199C49D4
:1018B00049899D4A1288514308460A21FEF72EFCA9
:1018C000381886B23046FEBD0198851B032407E018
:1018D00060009649095A601C4000944A1152641EE7
:1018E000002CF5DA91490D8000204881002408E0A1
:1018F0008E48408961008D4A515A401811464881EE
:10190000641C042CF4DD002D05DD88484089401955
:101910008649488104E085484089401B83494881C5
:1019200082484089FF212D31884202DB08467F49E9
:1019300048817C490988694308460A21FEF7EEFB85
:1019400087197A494989784A1288514308460A21F9
:10195000FEF7E4FB381886B23046B4E70198851BE1
:10196000032407E060007249095A601C4000704A75
:101970001152641E002CF5DA6D490D80002048815B
:10198000002408E06A4840896100694A515A4018B9
:1019900011464881641C042CF4DD002D05DD6448EB
:1019A000408940196249488104E061484089401BF0
:1019B0005F4948815E484089FF212D31884202DB22
:1019C00008465B49488157490988694308460A2106
:1019D000FEF7A4FB871956494989534A1288514397
:1019E00008460A21FEF79AFB381886B230466AE7A5
:1019F0000198851B032407E060004E49095A601CCA
:101A000040004C4A1152641E002CF5DA49490D8001
:101A10000020488100240AE036E07FE04548408904
:101A20006100444A515A401811464881641C042CF4
:101A3000F4DD002D05DD3F48408940193D494881CE
:101A400004E03C484089401B3A4948813948408974
:101A5000FF212D31884202DB084636494881314951
:101A60000988694308460A21FEF758FB871931495E
:101A700049892D4A1288514308460A21FEF74EFB38
:101A8000381886B230461EE70198851B032407E00C
:101A900060002949095A601C4000274A1152641EFF
:101AA000002CF5DA24490D8000204881002408E04C
:101AB000214840896100204A515A40181146488106
:101AC000641C042CF4DD002D05DD1B484089401901
:101AD0001949488104E018484089401B164948814B
:101AE00015484089FF212D31884202DB0846124902
:101AF00048810C490988694308460A21FEF70EFB14
:101B000087190D494989084A1288514308460A2114
:101B1000FEF704FB381886B23046D4E60020D2E641
:101B2000C80100208200002084000020D401002091
:101B3000E0010020EC010020F801002070470000C7
:101B400010B50F490F480068FEF7D2FA04460E4858
:101B5000844201D901200EE02002000A401E0B49F8
:101B600048610321081FFFF781FA002007498861B7
:101B7000072008610020002801D000BFFEE710BD4B
:101B8000A086010000000020FFFFFF0000E000E051
:101B900010B51B4800680121084319490860084630
:101BA00040681849084016494860084600681649C8
:101BB00008401349086008460068012189048843E9
:101BC0000F490860084640683F21090488430C49D2
:101BD00048600846C06A00090001C8620846006BF8
:101BE000FF2154318843064908630846406B40088A
:101BF0004000486300208860FFF7FCFC10BD000037
:101C0000001002400CB8FFF8FFFFF6FE10B50121EE
:101C1000194800F027FA00282CD001240121164889
:101C200000F00EFA15480088002803D11448007807
:101C3000012813D111480088401E10490880012C4A
:101C400006D11049104A1278885CFFF711FC05E0B4
:101C50000E490D4A1278885CFFF70AFC0A480078A2
:101C6000401C0949087008460078042801DB002060
:101C7000087000BF10BD0000002000404E00002092
:101C80007E0000205E000020160000206200002080
:101C90001FB5044601210802FFF736FA0021684605
:101CA0008180C1800D48029068468181817301A9BD
:101CB0000B4800F0F5F913216846017000214170CE
:101CC00001218170FFF79AF90121054800F0BCF964
:101CD00001221146024800F0D8F91FBD7FBB000069
:101CE0000020004010B50121194800F0BBF9002880
:101CF0002CD001240121164800F0A2F915480088D3
:101D0000002803D114480078012813D11148008815
:101D1000401E10490880012C06D11049104A127843
:101D2000885CFFF7E5FB05E00E490D4A1278885CF8
:101D3000FFF7DEFB0A480078401C09490870084696
:101D40000078042801DB0020087000BF10BD0000EF
:101D500000440140500000207F0000205E00002071
:101D600017000020620000201FB50446012148042E
:101D7000FFF7EAF9002168468180C1800D48029092
:101D800068468181817301A90B4800F089F915210A
:101D9000684601700021417001218170FFF72EF922
:101DA0000121054800F050F901221146024800F0D7
:101DB0006CF91FBD7FBB00000044014010B501213C
:101DC000194800F04FF900282CD0012401211648B1
:101DD00000F036F915480088002803D1144800782F
:101DE000012813D111480088401E10490880012C99
:101DF00006D11049104A1278885CFFF7BDFB05E058
:101E00000E490D4A1278885CFFF7B6FB0A48007845
:101E1000401C0949087008460078042801DB0020AE
:101E2000087000BF10BD00000048014052000020B3
:101E3000800000205E0000201800002062000020CA
:101E40001FB5044601218804FFF77EF9002168468A
:101E50008180C1800D48029068468181817301A90B
:101E60000B4800F01DF916216846017000214170F1
:101E700001218170FFF7C2F80121054800F0E4F864
:101E800001221146024800F000F91FBD7FBB00008F
:101E90000048014010B50121880700F0E3F8002850
:101EA0002CD001240121880700F0CAF814480088CA
:101EB000002803D113480078012813D11048008866
:101EC000401E0F490880012C06D10F490F4A127895
:101ED000885CFFF753FA05E00D490C4A1278885CDC
:101EE000FFF74CFA09480078401C0849087008467A
:101EF0000078042801DB0020087000BF10BD00003E
:101F00004A0000207C0000205E0000201400002019
:101F1000620000201FB5044601210846FFF7F4F8CF
:101F2000002168468180C1800E4802906846818108
:101F3000817301A90120800700F0B2F80F216846E3
:101F400001700021417001218170FFF757F80121D4
:101F5000880700F079F801221146900700F095F803
:101F60001FBD00007FBB000010B50121194800F023
:101F700079F800282CD001240121164800F060F8DF
:101F800015480088002803D114480078012813D18F
:101F900011480088401E10490880012C06D11049C4
:101FA000104A1278885CFFF729FA05E00E490D4ABD
:101FB0001278885CFFF722FA0A480078401C094929
:101FC000087008460078042801DB0020087000BF74
:101FD00010BD0000000400404C0000207D000020E7
:101FE0005E00002015000020620000201FB504469E
:101FF00001210220FFF788F8002168468180C18016
:102000000D48029068468181817301A90B4800F058
:1020100047F810216846017000214170012181704C
:10202000FEF7ECFF0121054800F00EF801221146F1
:10203000024800F02AF81FBD7FBB000000040040EA
:10204000CA43028270470000002904D0028801239D
:102050001A43028003E00288014B1A400280704755
:10206000FEFF000030B50246002000230024158A40
:102070000D402B4695890D402C46002B03D0002C9B
:1020800001D0012000E0002030BD002A03D0838968
:102090000B43838102E083898B4383817047000077
:1020A00000220288154B984206D001239B079842D4
:1020B00002D0134B984203D1124B1A404B881A435B
:1020C000114B984203D0114B1A400B891A430280DE
:1020D0004B68C3620B880385084B984208D00C4BB1
:1020E000984205D00B4B984202D00B4B984201D13D
:1020F0008B7A03860123838270470000002C014005
:10210000000400408FFF000000100040FFFC0000B2
:1021100000400140004401400048014000B589B042
:1021200000212B4800F0DBF8294800F0E5F80121F8
:102130008803FFF709F801214804FEF7D5FF0122C3
:102140000921C806FEF7CCFE01220A210920C0069B
:10215000FEF7C6FE012040020790022108A8017088
:1021600000218170032141700021C17007A909205D
:10217000C006FEF76DFE012080020790022108A82C
:1021800001700021C17007A90920C006FEF760FE9A
:10219000E1204002019000200290039004900690FC
:1021A0000C20059001A90A4800F036F901220949DE
:1021B000074800F010F90121054800F090F840218F
:1021C000034800F08AF800F07DF809B000BD000077
:1021D000003801400501050010B53649364800F0C9
:1021E000D3F8002864D0344800F08AF9C4B23348E8
:1021F0000078C00900285BD1304800784006C00F45
:10220000002822D00A2C12D02C48007880098001A6
:102210002A490870084600784021884327490870F9
:1022200008460078802188432449087040E023480C
:102230000078802188438030204908700020097888
:102240008906890E1E4A505432E00D2C07D11B48D6
:1022500000784021884340301849087028E017482A
:1022600000788006800E16490C54144800788009C6
:10227000800112490978491C8906890E08430F49D3
:102280000870084600788006800E3F2810DD08465A
:102290000078800980010870084600784021884352
:1022A0000649087008460078802188430349087071
:1022B00010BD000005010500003801402C00002081
:1022C0008800002008B51B2168460170002141707C
:1022D00001218170FEF792FE08BD0162704700295E
:1022E00004D0026801231A43026003E00268520826
:1022F000520002607047000010B50446194884423D
:1023000009D101218803FEF72FFF0021012080035E
:10231000FEF72AFF25E01448844209D10121480430
:10232000FEF702FF002101204004FEF7FDFE18E049
:102330000E48844209D101218804FEF7F5FE0021F0
:1023400001208004FEF7F0FE0BE00948844208D12A
:102350000121C804FEF7E8FE00210120C004FEF7B9
:10236000E3FE10BD0038014000440040004800403A
:10237000004C004002460020D3690B40002B01D0E6
:10238000012000E00020704770B502460B46002493
:102390000021002500201E04350ED9B201268E40F2
:1023A0003146012D02D11668314006E0022D02D1DE
:1023B0005668314001E0966831401C0C0126A64069
:1023C0003446D6693440002903D0002C01D00120C6
:1023D00000E0002070BDF8B50346002400260096FA
:1023E0000025002018460E04340ECEB200960127B8
:1023F000009EB7403D46022C01D1001D02E0032C97
:1024000000D10830002A03D006682E43066002E09F
:102410000668AE430660F8BDF0B58BB004460D46C5
:10242000002700200A900026206840084000206015
:10243000666803210903304688430646A8680643B8
:10244000666026682A480640E96868680843296982
:10245000084306432660A6680321090230468843E4
:10246000064668690643A66001A8FEF78DFE21486E
:10247000844202D107980A9007E01F48844202D1A3
:1024800008980A9001E003980A9020680121C90386
:10249000084000280CD029680A9A5000FDF728FE51
:1024A000074629680A9A5000FDF722FE0E4609E009
:1024B00029680A98FDF71CFE074629680A98FDF767
:1024C00017FE0E4628684008B04200D87F1C2068DE
:1024D0000121C9030840002806D03807460F3846B6
:1024E0000649084030430746A7810BB0F0BD000005
:1024F000F3E9FFFF0038014000440040F0FF000016
:102500000146888CC005C00D7047CA05D20D0285F2
:10251000704710B5FEF7F8F9FEF758F810BD000047
:102520000FB410B503A9044B044A029800F026F832
:1025300010BC08BC04B01847492700083000002030
:1025400030B47446641E2578641CAB4204D3635DCA
:102550005B00E31830BC18471D46F8E702E008C8E6
:10256000121F08C1002AFAD170477047002001E00D
:1025700001C1121F002AFBD170470000FFB58DB0CA
:102580000F460546002606E025280AD0109A0F9926
:1025900090476D1C761C28780028F5D1304611B084
:1025A000F0BD00240121674A009400E004436D1C43
:1025B0002B780846203B98401042F7D128782E28E7
:1025C00015D10420044368786D1C2A280AD101CF54
:1025D0006D1C00900BE000990A22514330394018DD
:1025E0006D1C00902878014630390929F3D92878E4
:1025F000692843D006DC0028D0D063280BD064289B
:1026000004D13BE073280FD075284CD0109A0F9955
:102610009047761C94E0387869460872002048722A
:1026200002A80190012003E0386801900020C04317
:102630003F1D61070CD5002400E0641C00998C420A
:102640000FDA8442F9DB0199095D0029F5D108E030
:10265000002400E0641C8442FCDB0199095D002930
:10266000F8D1361907E0019801990078491C0191C9
:10267000109A0F999047641EF5D261E00A200190EC
:1026800001CF002802DA40422D2102E0210504D5C5
:102690002B216A461172012103E0E10701D02021BC
:1026A000F7E70C9104E00A20019001CF00210C9182
:1026B0000BA90B9108E00199FDF71AFD0A460B9949
:1026C0003032491E0B910A700028F4D10B9803A9EF
:1026D000081A20300190600701D5009801E0012020
:1026E00000900199884203DD01460198081A00E034
:1026F00000200024009006E002A8109A005D0F99C7
:102700009047641C761C0C988442F5DB04E0109A18
:1027100030200F999047761C0099481E00900029A0
:10272000F5DC08E00B980B990078491C0B91109A86
:102730000F999047761C0199481E01900029F1DC01
:102740006D1C28E70928010070B504460D46A1B2AA
:102750000548FFF7DAFE00BF40210348FFF70AFEF5
:102760000028F9D0204670BD003801401CB537A1C3
:1027700003C901910090FFF70BFAFEF7E2FBFFF7A8
:10278000CDFCFEF7F9FBFFF7C4FEFDF700FDFFF7F8
:10279000D7F9FEF783F810210920C006FEF7C4FB25
:1027A0002C48FEF7C5FB10210920C006FEF7BAFB36
:1027B000294801882948FDF7B1FC0446FEF70AFCC8
:1027C00042E027498988274A514308462649FDF7B0
:1027D000A5FC2649088022494988224A51430846D7
:1027E0002149FDF79BFC224908801D4909881D4AA3
:1027F000514308461C49FDF791FC1E4908801B48BF
:1028000001881DA0FFF78CFE1948018823A0FFF75F
:1028100087FE184801882AA0FFF782FE0821684633
:10282000FEF7AAF9FEF752FF01210920C006FEF7C4
:1028300079FB0848FEF77CFB01210920C006FEF762
:1028400073FB0448FEF774FBBBE7000001010000C6
:1028500000000000FFFF0F0066000020001BB70013
:102860003E000020E40C0000FF0F000044000020A8
:10287000460000204800002054686520637572728D
:10288000656E742054656D7053656E73566F6C740D
:10289000203D202564206D560D0A000054686520F7
:1028A00063757272656E7420414443315F566F7474
:1028B000616765203D202564206D560D0A000000EB
:1028C0005468652063757272656E742041444332AA
:1028D0005F566F74616765203D202564206D560D3D
:1028E0000A0D0A00042900080000002088000000EA
:1028F0005C2500088C290008880000208005000065
:102900006C250008006CDC020000000000000000E4
:10291000010203040607080900000000000000008F
:102920000001020304010203040607080900000075
:10293000000000000000000000000000C8000020AF
:102940000000000000000000000000000000000087
:102950000000000000000000000000000000000077
:1029600000000C0603090903060C640064006400FF
:102970006400640064006400640064006400640037
:0C29800000000000000004000100000046
:04000005080000C12E
:00000001FF
